:100000000C9434000C9451000C9451000C94510049
:100010000C9451000C9451000C9451000C9451001C
:100020000C9451000C9451000C9451000C9451000C
:100030000C9451000C94DE000C9451000C9451006F
:100040000C9451000C9451000C9451000C945100EC
:100050000C9451000C9451000C9451000C945100DC
:100060000C9451000C94510011241FBECFEFD8E026
:10007000DEBFCDBF11E0A0E0B1E0ECEEF6E002C0E3
:1000800005900D92A430B107D9F721E0A4E0B1E0CA
:1000900001C01D92A630B207E1F70E9467010C94DF
:1000A00074030C9400004098419817BC0895809107
:1000B0000201813029F00E94530081E08093020107
:1000C000419A4098089580910201882321F00E946E
:1000D000530010920201409A419808954298439823
:1000E00018BC089580910101813029F00E946E00B2
:1000F00081E080930101439A4298089584B5836A10
:1001000084BD85B5816085BD569A87B1836087B906
:100110000E94570017BC559A87B18C6087B90E941E
:10012000720018BC089580910101882321F00E947B
:100130006E0010920101429A43980895219A2098E6
:100140000895299A85E38A95F1F700002998089582
:10015000EFE6F0E0808181608083109280000E9451
:10016000A1001092850010928400E1E8F0E0808107
:1001700081648083B59AB09AB59BFECF10928500BA
:1001800010928400E1E8F0E080818F7B8083B59A53
:10019000B09A1092050110920401B59BFECF6091B8
:1001A00086007091870080E090E00E94BD0220E010
:1001B00030E048E654E40E944B0208951F920F92EB
:1001C0000FB60F9211248F939F9380910401909109
:1001D0000501019690930501809304019F918F91F1
:1001E0000F900FBE0F901F9018950E949E000E94C6
:1001F0007E00089586E0809300010E9453000E94D3
:100200006E000895CF93C82F80910001813031F0A6
:100210000E94FA000E9457000E947200C7BDC8BD2C
:1002200081E080930001CF910895CF93C82F8091F2
:100230000001882331F00E94FA000E9463000E94AE
:100240009300C7BDC8BD10920001CF910895809161
:100250000001833041F00E94FA000E9472000E9467
:10026000530087E888BD83E0809300010895809162
:100270000001853041F00E94FA000E9493000E9424
:10028000530087E888BD85E0809300010895809140
:100290000001823041F00E94FA000E9457000E9443
:1002A0006E0086E987BD82E0809300010895809109
:1002B0000001843041F00E94FA000E9463000E9415
:1002C0006E0086E987BD84E08093000108957894EC
:1002D0000E94F50087B18F7C87B90E94A80020E0BA
:1002E00030E040E251E40E944B0318160CF062C06B
:1002F00086B1807390E095958795959587959595AE
:100300008795959587952FEF31EE44E02150304049
:100310004040E1F700C0000026B1AC015527207332
:1003200030E0359527953595279535952795359561
:1003300027954217530719F4C82F811104C086E985
:100340000E940201CACF0E94FA008FEF93ED20E3D2
:10035000815090402040E1F700C00000C33069F4B4
:1003600086E90E9415013FEF43ED80E331504040A4
:100370008040E1F700C00000B0CFC23061F40E94BD
:1003800027019FEF2DE232E2915020403040E1F70B
:1003900000C00000A2CFC13009F09FCF0E944701EA
:1003A0004FEF8DE292E2415080409040E1F700C073
:1003B000000093CF86B1807390E0959587959595D1
:1003C000879595958795959587952FEF31EE44E024
:1003D000215030404040E1F700C0000026B1AC01A0
:1003E0005527207330E03595279535952795359518
:1003F0002795359527954217530709F040C0C82F18
:100400000E94FA008FEF93ED20E38150904020404E
:10041000E1F700C00000C13061F40E9457013FEFD6
:100420004DE282E2315040408040E1F700C00000E0
:100430000EC0C23061F40E9437019FEF2DE232E21C
:10044000915020403040E1F700C0000046CF86E9DF
:100450000E9415014FEF89E698E14150804090409D
:10046000E1F700C000000E9437012FEF3DE242E2B9
:10047000215030404040E1F700C000002ECF0E94E4
:10048000FA008FEF93ED20E3815090402040E1F798
:1004900000C00000DCCF0E945F020C9411030E9498
:1004A0000A0358F00E94030340F029F45F3F29F04B
:1004B0000C94FA0251110C9445030C9400030E9411
:1004C000220368F39923B1F3552391F3951B550B40
:1004D000BB27AA2762177307840738F09F5F5F4F17
:1004E000220F331F441FAA1FA9F335D00E2E3AF056
:1004F000E0E832D091505040E695001CCAF72BD06E
:10050000FE2F29D0660F771F881FBB1F26173707BE
:100510004807AB07B0E809F0BB0B802DBF01FF27F0
:1005200093585F4F3AF09E3F510578F00C94FA02D1
:100530000C9445035F3FE4F3983ED4F3869577959A
:100540006795B795F7959F5FC9F7880F911D9695A9
:10055000879597F90895E1E0660F771F881FBB1F05
:10056000621773078407BA0720F0621B730B840BB2
:10057000BA0BEE1F88F7E0950895E89409C097FB41
:100580003EF490958095709561957F4F8F4F9F4F6A
:100590009923A9F0F92F96E9BB279395F6958795AE
:1005A00077956795B795F111F8CFFAF4BB0F11F471
:1005B00060FF1BC06F5F7F4F8F4F9F4F16C0882318
:1005C00011F096E911C0772321F09EE8872F762F4E
:1005D00005C0662371F096E8862F70E060E02AF08F
:1005E0009A95660F771F881FDAF7880F969587957B
:1005F00097F9089597F99F6780E870E060E00895A3
:100600009FEF80EC089500240A941616170618062A
:100610000906089500240A94121613061406050606
:100620000895092E0394000C11F4882352F0BB0F97
:1006300040F4BF2B11F460FF04C06F5F7F4F8F4FFA
:100640009F4F089557FD9058440F551F59F05F3F35
:1006500071F04795880F97FB991F61F09F3F79F0E4
:1006600087950895121613061406551FF2CF469566
:10067000F1DF08C0161617061806991FF1CF8695E8
:100680007105610508940895E894BB2766277727CC
:10069000CB0197F908950E94500308F48FEF089555
:1006A000990F0008550FAA0BE0E8FEEF1616170683
:1006B000E807F907C0F012161306E407F50798F0EB
:1006C000621B730B840B950B39F40A2661F0232B04
:1006D000242B252B21F408950A2609F4A140A69580
:0C06E0008FEF811D811D0895F894FFCF5D
:0406EC000101010007
:00000001FF
